{
  "_format": "hh-sol-artifact-1",
  "contractName": "VotingSystem",
  "sourceName": "contracts/VotingSystem.sol",
  "abi": [
    {
      "anonymous": false,
      "inputs": [
        {
          "indexed": false,
          "internalType": "uint256",
          "name": "pollId",
          "type": "uint256"
        },
        {
          "indexed": false,
          "internalType": "string",
          "name": "title",
          "type": "string"
        },
        {
          "indexed": false,
          "internalType": "uint256",
          "name": "endTime",
          "type": "uint256"
        },
        {
          "indexed": false,
          "internalType": "address",
          "name": "creator",
          "type": "address"
        }
      ],
      "name": "PollCreated",
      "type": "event"
    },
    {
      "anonymous": false,
      "inputs": [
        {
          "indexed": false,
          "internalType": "uint256",
          "name": "pollId",
          "type": "uint256"
        },
        {
          "indexed": false,
          "internalType": "uint256[]",
          "name": "results",
          "type": "uint256[]"
        }
      ],
      "name": "PollResult",
      "type": "event"
    },
    {
      "anonymous": false,
      "inputs": [
        {
          "indexed": false,
          "internalType": "uint256",
          "name": "pollId",
          "type": "uint256"
        },
        {
          "indexed": false,
          "internalType": "uint256",
          "name": "optionIndex",
          "type": "uint256"
        },
        {
          "indexed": false,
          "internalType": "address",
          "name": "voter",
          "type": "address"
        }
      ],
      "name": "VoteCasted",
      "type": "event"
    },
    {
      "inputs": [
        {
          "internalType": "string",
          "name": "title",
          "type": "string"
        },
        {
          "internalType": "string[]",
          "name": "options",
          "type": "string[]"
        },
        {
          "internalType": "uint256",
          "name": "durationInMinutes",
          "type": "uint256"
        }
      ],
      "name": "createPoll",
      "outputs": [],
      "stateMutability": "nonpayable",
      "type": "function"
    },
    {
      "inputs": [
        {
          "internalType": "uint256",
          "name": "pollId",
          "type": "uint256"
        }
      ],
      "name": "getPollDetails",
      "outputs": [
        {
          "internalType": "string",
          "name": "title",
          "type": "string"
        },
        {
          "internalType": "string[]",
          "name": "options",
          "type": "string[]"
        },
        {
          "internalType": "uint256",
          "name": "endTime",
          "type": "uint256"
        },
        {
          "internalType": "address",
          "name": "creator",
          "type": "address"
        }
      ],
      "stateMutability": "view",
      "type": "function"
    },
    {
      "inputs": [
        {
          "internalType": "uint256",
          "name": "pollId",
          "type": "uint256"
        }
      ],
      "name": "getPollResults",
      "outputs": [
        {
          "internalType": "uint256[]",
          "name": "results",
          "type": "uint256[]"
        }
      ],
      "stateMutability": "view",
      "type": "function"
    },
    {
      "inputs": [
        {
          "internalType": "uint256",
          "name": "pollId",
          "type": "uint256"
        },
        {
          "internalType": "uint256",
          "name": "optionIndex",
          "type": "uint256"
        }
      ],
      "name": "vote",
      "outputs": [],
      "stateMutability": "nonpayable",
      "type": "function"
    }
  ],
  "bytecode": "0x6080604052600060015534801561001557600080fd5b506117ac806100256000396000f3fe608060405234801561001057600080fd5b506004361061004c5760003560e01c806333b4097b146100515780639a0040e414610081578063b384abef146100b4578063f8c860f4146100d0575b600080fd5b61006b600480360381019061006691906109ad565b6100ec565b6040516100789190610a98565b60405180910390f35b61009b600480360381019061009691906109ad565b61021b565b6040516100ab9493929190610ca6565b60405180910390f35b6100ce60048036038101906100c99190610cf9565b61043c565b005b6100ea60048036038101906100e59190610f54565b61069a565b005b60608160008082815260200190815260200160002060060160009054906101000a900460ff16610151576040517f08c379a00000000000000000000000000000000000000000000000000000000081526004016101489061102b565b60405180910390fd5b60008060008581526020019081526020016000209050806001018054905067ffffffffffffffff81111561018857610187610d43565b5b6040519080825280602002602001820160405280156101b65781602001602082028036833780820191505090505b50925060005b816001018054905081101561021357816004016000828152602001908152602001600020548482815181106101f4576101f361104b565b5b602002602001018181525050808061020b906110a9565b9150506101bc565b505050919050565b6060806000808460008082815260200190815260200160002060060160009054906101000a900460ff16610284576040517f08c379a000000000000000000000000000000000000000000000000000000000815260040161027b9061102b565b60405180910390fd5b60008060008881526020019081526020016000209050806000018160010182600201548360030160009054906101000a900473ffffffffffffffffffffffffffffffffffffffff168380546102d890611120565b80601f016020809104026020016040519081016040528092919081815260200182805461030490611120565b80156103515780601f1061032657610100808354040283529160200191610351565b820191906000526020600020905b81548152906001019060200180831161033457829003601f168201915b5050505050935082805480602002602001604051908101604052809291908181526020016000905b8282101561042557838290600052602060002001805461039890611120565b80601f01602080910402602001604051908101604052809291908181526020018280546103c490611120565b80156104115780601f106103e657610100808354040283529160200191610411565b820191906000526020600020905b8154815290600101906020018083116103f457829003601f168201915b505050505081526020019060010190610379565b505050509250955095509550955050509193509193565b8160008082815260200190815260200160002060060160009054906101000a900460ff1661049f576040517f08c379a00000000000000000000000000000000000000000000000000000000081526004016104969061102b565b60405180910390fd5b6000806000858152602001908152602001600020905080600201544211156104fc576040517f08c379a00000000000000000000000000000000000000000000000000000000081526004016104f39061119d565b60405180910390fd5b80600101805490508310610545576040517f08c379a000000000000000000000000000000000000000000000000000000000815260040161053c90611209565b60405180910390fd5b8060050160003373ffffffffffffffffffffffffffffffffffffffff1673ffffffffffffffffffffffffffffffffffffffff16815260200190815260200160002060009054906101000a900460ff16156105d4576040517f08c379a00000000000000000000000000000000000000000000000000000000081526004016105cb90611275565b60405180910390fd5b80600401600084815260200190815260200160002060008154809291906105fa906110a9565b919050555060018160050160003373ffffffffffffffffffffffffffffffffffffffff1673ffffffffffffffffffffffffffffffffffffffff16815260200190815260200160002060006101000a81548160ff0219169083151502179055507ffe9b9fe32c3fe66775687ffbbb055de4489a6f99a6d31665430849156e8d743584843360405161068c93929190611295565b60405180910390a150505050565b60008351116106de576040517f08c379a00000000000000000000000000000000000000000000000000000000081526004016106d590611318565b60405180910390fd5b6001825111610722576040517f08c379a0000000000000000000000000000000000000000000000000000000008152600401610719906113aa565b60405180910390fd5b60008111610765576040517f08c379a000000000000000000000000000000000000000000000000000000000815260040161075c90611416565b60405180910390fd5b6000806000600154815260200190815260200160002090508381600001908161078e91906115e2565b50828160010190805190602001906107a7929190610889565b50603c826107b591906116b4565b426107c091906116f6565b8160020181905550338160030160006101000a81548173ffffffffffffffffffffffffffffffffffffffff021916908373ffffffffffffffffffffffffffffffffffffffff16021790555060018160060160006101000a81548160ff0219169083151502179055507f39bc38c0a42f5c3d4d50dd162d3d0cbbe4ae6221023f3bc25fbf3c4fd68999f660015485836002015433604051610863949392919061172a565b60405180910390a16001600081548092919061087e906110a9565b919050555050505050565b8280548282559060005260206000209081019282156108d1579160200282015b828111156108d05782518290816108c091906115e2565b50916020019190600101906108a9565b5b5090506108de91906108e2565b5090565b5b8082111561090257600081816108f99190610906565b506001016108e3565b5090565b50805461091290611120565b6000825580601f106109245750610943565b601f0160209004906000526020600020908101906109429190610946565b5b50565b5b8082111561095f576000816000905550600101610947565b5090565b6000604051905090565b600080fd5b600080fd5b6000819050919050565b61098a81610977565b811461099557600080fd5b50565b6000813590506109a781610981565b92915050565b6000602082840312156109c3576109c261096d565b5b60006109d184828501610998565b91505092915050565b600081519050919050565b600082825260208201905092915050565b6000819050602082019050919050565b610a0f81610977565b82525050565b6000610a218383610a06565b60208301905092915050565b6000602082019050919050565b6000610a45826109da565b610a4f81856109e5565b9350610a5a836109f6565b8060005b83811015610a8b578151610a728882610a15565b9750610a7d83610a2d565b925050600181019050610a5e565b5085935050505092915050565b60006020820190508181036000830152610ab28184610a3a565b905092915050565b600081519050919050565b600082825260208201905092915050565b60005b83811015610af4578082015181840152602081019050610ad9565b60008484015250505050565b6000601f19601f8301169050919050565b6000610b1c82610aba565b610b268185610ac5565b9350610b36818560208601610ad6565b610b3f81610b00565b840191505092915050565b600081519050919050565b600082825260208201905092915050565b6000819050602082019050919050565b600082825260208201905092915050565b6000610b9282610aba565b610b9c8185610b76565b9350610bac818560208601610ad6565b610bb581610b00565b840191505092915050565b6000610bcc8383610b87565b905092915050565b6000602082019050919050565b6000610bec82610b4a565b610bf68185610b55565b935083602082028501610c0885610b66565b8060005b85811015610c445784840389528151610c258582610bc0565b9450610c3083610bd4565b925060208a01995050600181019050610c0c565b50829750879550505050505092915050565b610c5f81610977565b82525050565b600073ffffffffffffffffffffffffffffffffffffffff82169050919050565b6000610c9082610c65565b9050919050565b610ca081610c85565b82525050565b60006080820190508181036000830152610cc08187610b11565b90508181036020830152610cd48186610be1565b9050610ce36040830185610c56565b610cf06060830184610c97565b95945050505050565b60008060408385031215610d1057610d0f61096d565b5b6000610d1e85828601610998565b9250506020610d2f85828601610998565b9150509250929050565b600080fd5b600080fd5b7f4e487b7100000000000000000000000000000000000000000000000000000000600052604160045260246000fd5b610d7b82610b00565b810181811067ffffffffffffffff82111715610d9a57610d99610d43565b5b80604052505050565b6000610dad610963565b9050610db98282610d72565b919050565b600067ffffffffffffffff821115610dd957610dd8610d43565b5b610de282610b00565b9050602081019050919050565b82818337600083830152505050565b6000610e11610e0c84610dbe565b610da3565b905082815260208101848484011115610e2d57610e2c610d3e565b5b610e38848285610def565b509392505050565b600082601f830112610e5557610e54610d39565b5b8135610e65848260208601610dfe565b91505092915050565b600067ffffffffffffffff821115610e8957610e88610d43565b5b602082029050602081019050919050565b600080fd5b6000610eb2610ead84610e6e565b610da3565b90508083825260208201905060208402830185811115610ed557610ed4610e9a565b5b835b81811015610f1c57803567ffffffffffffffff811115610efa57610ef9610d39565b5b808601610f078982610e40565b85526020850194505050602081019050610ed7565b5050509392505050565b600082601f830112610f3b57610f3a610d39565b5b8135610f4b848260208601610e9f565b91505092915050565b600080600060608486031215610f6d57610f6c61096d565b5b600084013567ffffffffffffffff811115610f8b57610f8a610972565b5b610f9786828701610e40565b935050602084013567ffffffffffffffff811115610fb857610fb7610972565b5b610fc486828701610f26565b9250506040610fd586828701610998565b9150509250925092565b7f506f6c6c20646f6573206e6f7420657869737400000000000000000000000000600082015250565b6000611015601383610ac5565b915061102082610fdf565b602082019050919050565b6000602082019050818103600083015261104481611008565b9050919050565b7f4e487b7100000000000000000000000000000000000000000000000000000000600052603260045260246000fd5b7f4e487b7100000000000000000000000000000000000000000000000000000000600052601160045260246000fd5b60006110b482610977565b91507fffffffffffffffffffffffffffffffffffffffffffffffffffffffffffffffff82036110e6576110e561107a565b5b600182019050919050565b7f4e487b7100000000000000000000000000000000000000000000000000000000600052602260045260246000fd5b6000600282049050600182168061113857607f821691505b60208210810361114b5761114a6110f1565b5b50919050565b7f506f6c6c2068617320656e646564000000000000000000000000000000000000600082015250565b6000611187600e83610ac5565b915061119282611151565b602082019050919050565b600060208201905081810360008301526111b68161117a565b9050919050565b7f496e76616c6964206f7074696f6e20696e646578000000000000000000000000600082015250565b60006111f3601483610ac5565b91506111fe826111bd565b602082019050919050565b60006020820190508181036000830152611222816111e6565b9050919050565b7f596f75206861766520616c726561647920766f74656400000000000000000000600082015250565b600061125f601683610ac5565b915061126a82611229565b602082019050919050565b6000602082019050818103600083015261128e81611252565b9050919050565b60006060820190506112aa6000830186610c56565b6112b76020830185610c56565b6112c46040830184610c97565b949350505050565b7f5469746c652063616e6e6f7420626520656d7074790000000000000000000000600082015250565b6000611302601583610ac5565b915061130d826112cc565b602082019050919050565b60006020820190508181036000830152611331816112f5565b9050919050565b7f4174206c656173742074776f206f7074696f6e7320617265207265717569726560008201527f6400000000000000000000000000000000000000000000000000000000000000602082015250565b6000611394602183610ac5565b915061139f82611338565b604082019050919050565b600060208201905081810360008301526113c381611387565b9050919050565b7f4475726174696f6e206d7573742062652067726561746572207468616e203000600082015250565b6000611400601f83610ac5565b915061140b826113ca565b602082019050919050565b6000602082019050818103600083015261142f816113f3565b9050919050565b60008190508160005260206000209050919050565b60006020601f8301049050919050565b600082821b905092915050565b6000600883026114987fffffffffffffffffffffffffffffffffffffffffffffffffffffffffffffffff8261145b565b6114a2868361145b565b95508019841693508086168417925050509392505050565b6000819050919050565b60006114df6114da6114d584610977565b6114ba565b610977565b9050919050565b6000819050919050565b6114f9836114c4565b61150d611505826114e6565b848454611468565b825550505050565b600090565b611522611515565b61152d8184846114f0565b505050565b5b818110156115515761154660008261151a565b600181019050611533565b5050565b601f8211156115965761156781611436565b6115708461144b565b8101602085101561157f578190505b61159361158b8561144b565b830182611532565b50505b505050565b600082821c905092915050565b60006115b96000198460080261159b565b1980831691505092915050565b60006115d283836115a8565b9150826002028217905092915050565b6115eb82610aba565b67ffffffffffffffff81111561160457611603610d43565b5b61160e8254611120565b611619828285611555565b600060209050601f83116001811461164c576000841561163a578287015190505b61164485826115c6565b8655506116ac565b601f19841661165a86611436565b60005b828110156116825784890151825560018201915060208501945060208101905061165d565b8683101561169f578489015161169b601f8916826115a8565b8355505b6001600288020188555050505b505050505050565b60006116bf82610977565b91506116ca83610977565b92508282026116d881610977565b915082820484148315176116ef576116ee61107a565b5b5092915050565b600061170182610977565b915061170c83610977565b92508282019050808211156117245761172361107a565b5b92915050565b600060808201905061173f6000830187610c56565b81810360208301526117518186610b11565b90506117606040830185610c56565b61176d6060830184610c97565b9594505050505056fea26469706673582212201ed3793f18526d7aa2fceb695ef0c1dbe55302395d95ab4f597bd2a0d803f13c64736f6c63430008120033",
  "linkReferences": {},
  "deployedLinkReferences": {}
}